:100000000C94E1020C9409030C9409030C94090369
:100010000C9409030C9409030C9409030C94090330
:100020000C9409030C9409030C9409030C94090320
:100030000C9409030C9409030C9409030C94090310
:100040000C94B8150C9409030C949A180C94CC18C1
:100050000C9409030C9409030C9409030C940903F0
:100060000C9409030C94090300000000003E5B4F50
:100070005B3E3E6B4F6B3E1C3E7C3E1C183C7E3C08
:10008000181C577D571C1C5E7F5E1C00183C180016
:10009000FFE7C3E7FF0018241800FFE7DBE7FF30A6
:1000A000483A060E2629792926407F050507407F14
:1000B00005253F5A3CE73C5A7F3E1C1C08081C1C87
:1000C0003E7F14227F22145F5F005F5F06097F017D
:1000D0007F006689956A606060606094A2FFA29468
:1000E00008047E040810207E201008082A1C080836
:1000F0001C2A08081E101010100C1E0C1E0C303884
:100100003E3830060E3E0E06000000000000005F84
:1001100000000007000700147F147F14242A7F2AA0
:100120001223130864623649562050000807030062
:10013000001C2241000041221C002A1C7F1C2A08AE
:10014000083E080800807030000808080808000011
:1001500060600020100804023E5149453E00427F85
:10016000400072494949462141494D331814127FD4
:100170001027454545393C4A494931412111090774
:100180003649494936464949291E000014000000F5
:1001900040340000000814224114141414140041C7
:1001A00022140802015909063E415D594E7C121184
:1001B000127C7F494949363E414141227F414141BC
:1001C0003E7F494949417F090909013E4141517337
:1001D0007F0808087F00417F41002040413F017FA8
:1001E000081422417F404040407F021C027F7F0470
:1001F00008107F3E4141413E7F090909063E4151B9
:10020000215E7F09192946264949493203017F01A8
:10021000033F4040403F1F2040201F3F4038403FA9
:10022000631408146303047804036159494D4300BF
:100230007F4141410204081020004141417F0402F6
:10024000010204404040404000030708002054548D
:1002500078407F284444383844444428384444286B
:100260007F385454541800087E090218A4A49C78BE
:100270007F0804047800447D40002040403D007F1A
:100280001028440000417F40007C047804787C08FA
:100290000404783844444438FC18242418182424CE
:1002A00018FC7C08040408485454542404043F44B3
:1002B000243C4040207C1C2040201C3C4030403CE2
:1002C00044281028444C9090907C4464544C440042
:1002D00008364100000077000000413608000201A6
:1002E0000204023C2623263C1EA1A161123A404092
:1002F000207A385454555921555579412154547810
:1003000041215554784020545579400C1E527212A8
:100310003955555559395454545939555454580030
:1003200000457C410002457D420001457C40F029AA
:100330002429F0F0282528F07C54554500205454F9
:100340007C547C0A097F493249494932324848483D
:1003500032324A4848303A4141217A3A4240207884
:10036000009DA0A07D39444444393D4040403D3C7F
:1003700024FF2424487E4943662B2FFC2F2BFF09A2
:1003800029F620C0887E0903205454794100004496
:100390007D413048484A32384040227A007A0A0A81
:1003A000727D0D19317D2629292F282629292926F4
:1003B00030484D4020380808080808080808382F39
:1003C00010C8ACBA2F102834FA00007B00000814C3
:1003D0002A142222142A1408AA005500AAAA55AAEF
:1003E00055AA000000FF00101010FF00141414FFA5
:1003F000001010FF00FF1010F010F0141414FC0097
:100400001414F700FF0000FF00FF1414F404FC14A0
:100410001417101F10101F101F1414141F00101099
:1004200010F0000000001F101010101F101010100E
:10043000F010000000FF101010101010101010FF2E
:1004400010000000FF140000FF00FF00001F101745
:100450000000FC04F414141710171414F404F4002E
:1004600000FF00F714141414141414F700F71414F4
:1004700014171410101F101F141414F4141010F07B
:1004800010F000001F101F0000001F14000000FCEF
:10049000140000F010F01010FF10FF141414FF14DB
:1004A0001010101F00000000F010FFFFFFFFFFF012
:1004B000F0F0F0F0FFFFFF0000000000FFFF0F0F63
:1004C0000F0F0F38444438447C2A2A3E147E02021F
:1004D0000606027E027E0263554941633844443C6D
:1004E00004407E201E2006027E020299A5E7A599FF
:1004F0001C2A492A1C4C7201724C304A4D4D303036
:1005000048784830BC625A463D3E494949007E0120
:1005100001017E2A2A2A2A2A44445F444440514A3F
:10052000444040444A51400000FF0103E080FF0086
:100530000008086B6B083612362436060F090F06C2
:10054000000018180000001010003040FF010100EA
:100550001F01011E00191D1712003C3C3C3C00000D
:100560000000000000000800020100000304070072
:10057000000000000000000102040810204080017B
:1005800002040810200102040810200404040404DA
:100590000404040202020202020303030303030031
:1005A000000000230026002900000000002500288C
:1005B000002B0000000000240027002A0000660F26
:1005C000FC1811241FBECFEFD8E0DEBFCDBF12E074
:1005D000A0E0B1E0E4E2FAE302C005900D92A83693
:1005E000B107D9F724E0A8E6B2E001C01D92A43318
:1005F000B207E1F715E0C2ECD5E004C02297FE0196
:100600000E945B1BCE3BD107C9F70E9440190C9496
:10061000101D0C940000CF92DF92EF92FF920F9387
:100620001F93CF93DF9300D0CDB7DEB76C018B0162
:100630007C0184E0E80EF11CC60169837A830E9484
:10064000F21CF80181938F01FFEFCF1ADF0A698155
:100650007A81CE14DF0481F7CB010F900F90DF91E8
:10066000CF911F910F91FF90EF90DF90CF90089561
:100670000F931F93CF93DF938C01EB010E94F21C29
:100680008883C80101960E94F21C8983CE01DF9104
:10069000CF911F910F910895EF92FF920F931F93A7
:1006A000CF93DF931F92CDB7DEB77C01FC010081B1
:1006B0001181C80169830E94F21C6981681719F0D1
:1006C000C8010E94FA1CC7010F90DF91CF911F91C2
:1006D0000F91FF90EF900895BF92CF92DF92EF922B
:1006E000FF920F931F93CF93DF9300D01F92CDB74C
:1006F000DEB78C01B62EE62EF72E6C0184E0C80E14
:10070000D11CF70161917F011A830983CE01019603
:100710007B830E944C030F5F1F4F7B810C151D05CF
:1007200081F78B2D972F0F900F900F90DF91CF9126
:100730001F910F91FF90EF90DF90CF90BF900895A1
:10074000EF92FF920F931F93CF93DF9300D0CDB71B
:10075000DEB77C018B01FB0160819A838983CE0126
:1007600001960E944C03F8016181FFEFEF1AFF0A26
:10077000FA82E982CE0101960E944C03C8010F90D3
:100780000F90DF91CF911F910F91FF90EF900895FF
:10079000EF92FF920F931F93CF93DF937C01FB01A6
:1007A00004811581C281D38181E090E0BE010E9465
:1007B000F91A9C01200F311F86819781281739076C
:1007C00099F0C8010196BE010E94F91A95838483AD
:1007D000880F991F0190F081E02DE80FF91FF18239
:1007E000E08281E090E002C08FEF9FEFDF91CF9138
:1007F0001F910F91FF90EF900895DC0114962D91B9
:100800003C911597220F331FED91FC91E20FF31FDE
:10081000808191810895FC018681978124813581B1
:100820002817390719F480E090E008950196628155
:1008300073810E94F91A97838683880F991F01900C
:10084000F081E02DE80FF91F8081918108958F924A
:100850009F92AF92BF92CF92DF92EF92FF920F934F
:100860001F93CF93DF93CDB7DEB728970FB6F894D9
:10087000DEBF0FBECDBF82E093E00E946E1B90935F
:1008800069028093680210926D0210926C021092BD
:100890006F0210926E0281E891E090936B02809358
:1008A0006A0260E171E080E090E00E940B0364E185
:1008B00071E084E090E00E940B0368E171E088E061
:1008C00090E00E940B036AE071E08CE090E00E94EF
:1008D00038036CE071E08EE090E00E9438036EE037
:1008E00071E080E190E00E94380326E040E855E2A4
:1008F00060E070E083E993E00E9438181E821D8258
:1009000018861F8284E190E09C838B8388E290E0CC
:100910000E946E1B9A83898363ED71E083E993E003
:100920000E948D19BE016F5F7F4F8AE092E00E94A6
:10093000C803BE016F5F7F4F8AE093E00E94C80347
:10094000BE016F5F7F4F8AE094E00E94C8034AE0D7
:1009500050E0BC0183E993E00E94571ACE01019652
:100960000E94FD038C0169ED71E083E993E00E9430
:100970008D19602F772767FD70954AE050E083E975
:1009800093E00E944F1A61EE71E083E993E00E94C8
:100990008D19612F772767FD70954AE050E083E954
:1009A00093E00E94571ACE0101960E940B048C011D
:1009B00063EE71E083E993E00E948D19602F772741
:1009C00067FD70954AE050E083E993E00E944F1A7A
:1009D00061EE71E083E993E00E948D19612F772722
:1009E00067FD70954AE050E083E993E00E94571A52
:1009F000CE0101960E940B048C0163EE71E083E945
:100A000093E00E948D19602F772767FD70954AE06B
:100A100050E083E993E00E944F1A61EE71E083E9B0
:100A200093E00E948D19612F772767FD70954AE04A
:100A300050E083E993E00E94571ACE0101960E948C
:100A40000B048C0163EE71E083E993E00E948D1941
:100A5000602F772767FD70954AE050E083E993E0C7
:100A60000E944F1A61EE71E083E993E00E948D19B4
:100A7000612F772767FD70954AE050E083E993E0A6
:100A80000E94571ACE0101960E940B048C0163EE5E
:100A900071E083E993E00E948D19602F772767FD4D
:100AA00070954AE050E083E993E00E944F1A61EEAE
:100AB00071E083E993E00E948D19612F772767FD2C
:100AC00070954AE050E083E993E00E94571AE2E70C
:100AD000F2E0AAEBEA2EA2E0FA2E7FEF41E002E07C
:100AE00013E010823FEF71831282C701849721E0E7
:100AF000DC014C9345A316A252E0D7010C9311964A
:100B00001C92119712967C93CF0184599F4F63E0FA
:100B1000DC011C93D70195961C92959796964C9361
:100B20003396B3E0EB0EF11C82E0E639F807C9F624
:100B300060938102109282022093830250937B0281
:100B400010927C0230937D026093A5021092A6025F
:100B50002093A70250939F021092A0023093A1020B
:100B60001092BD023093BE021092BF022093CF02BA
:100B70002093D0021092D1021092E1023093E2024F
:100B80001092E3022093F3022093F4021092F502F4
:100B900064E283E793E00E94121283E793E00E94ED
:100BA0008E1283E793E00E949911B12C7AE0972E80
:100BB00083E793E00E9499116BE2C62E61E0D62E86
:100BC000A12C892C8B1800E010E0E12CF12CF6010F
:100BD000E00FF11F8081813039F4482D4E0D6A2DD0
:100BE00083E793E00E942F10AFEFEA1AFA0A085E3B
:100BF0001F4F0039110559F7A394BFEFCB1ADB0A39
:100C000088E1A812E0CF83E793E00E94651164E6D3
:100C100070E080E090E00E943116B394AAE0BA122E
:100C2000C7CF61E083E793E00E94551260ED77E063
:100C300080E090E00E94311660E083E793E00E943C
:100C400055121FE0612F83E793E00E94331284E086
:100C500093E00E94911564E670E080E090E00E94CD
:100C60003116115078F710E0612F83E793E00E946E
:100C7000331284E093E00E94911564E670E080E016
:100C800090E00E9431161F5F103171F740912201F0
:100C90006091230183E793E00E942F1083E793E0A4
:100CA0000E94651161E083E793E00E94CE0F61E04E
:100CB00083E793E00E94CB0F8AE080932201809328
:100CC000230183E793E00E94991128960FB6F894C8
:100CD000DEBF0FBECDBFDF91CF911F910F91FF906F
:100CE000EF90DF90CF90BF90AF909F908F9008953E
:100CF00023E030E03093CE012093CD01109220010B
:100D000081E0809321018FE08093D2011092D10184
:100D100081E090E09093CC018093CB011092890305
:100D200010928803309381032093800310928503EF
:100D3000109284039093CA018093C9011092C80154
:100D40001092C7018AE080932201809323014AE038
:100D50006AE083E793E00C942F10CF93DF938091A8
:100D6000840390918503009709F49AC00197C9F410
:100D700083E793E00E94991140E060E083E793E00D
:100D80000E94C70F8091C9019091CA01019681709C
:100D900099279093CA018093C901109285031092FC
:100DA000840380918403909185030797F9F483E786
:100DB00093E00E94991140E060E083E793E00E9495
:100DC000C70F8091C9019091CA019927019762E0EC
:100DD00070E00E94F91A9195819591099093CA014A
:100DE0008093C9011092850310928403809184033B
:100DF00090918503099709F053C083E793E00E941F
:100E00009911C091C901D091CA012097A9F482E03B
:100E100090E0909387038093860381E090E0909325
:100E200089038093880310928503109284031092A3
:100E30007102109270026AC0C130D10509F066C01B
:100E40000E947806D0938703C0938603109285038F
:100E50001092840383E090E0909383038093820355
:100E600010926F0210926E0210926D0210926C023C
:100E700088E18093D0018FEF8093CF0190E1909330
:100E8000D2018093D10168E672E08AE092E00E948C
:100E9000C80368E672E08AE093E00E94C80336C0A7
:100EA0008091C9019091CA0140E060E0009739F457
:100EB00083E793E00E94C70F6DEE71E008C00197D1
:100EC00059F483E793E00E94C70F6BEF71E083E76B
:100ED00093E00E948D1914C083E793E00E94C70F2E
:100EE00064E072E083E793E00E948D196091C9018C
:100EF0007091CA014AE050E083E793E00E944F1AE4
:100F000083E793E0DF91CF910C946511DF91CF914E
:100F100008950F931F93CF93DF936AE072E083E904
:100F200093E00E949A198091800390918103019629
:100F300083709927909381038093800328E1209305
:100F4000D0012FEF2093CF0130E13093D2012093D5
:100F5000D101029729F483E793E00E948E1204C026
:100F600083E793E00E949911C0E0D0E08091820372
:100F7000909183030297C817D90730F488E692E06E
:100F80000E940B042196F2CF83E090E090938303BC
:100F9000809382030AE010E0C0916E02D0916F024C
:100FA00080916C0290916D02019660916A0270913D
:100FB0006B020E94F91AC817D907C9F0CE01880F31
:100FC000991FE0916802F0916902E80FF91F4081D2
:100FD000618183E793E00E942F10CE01019660911A
:100FE0006A0270916B020E94F91AEC01D9CF83E773
:100FF00093E00E94651162E370E080E090E00E945F
:101000003116C0916E02D0916F0280916C02909166
:101010006D02019660916A0270916B020E94F91A4A
:10102000C817D907C9F0CE01880F991FE09168024F
:10103000F0916902E80FF91F4081618183E793E035
:101040000E943210CE01019660916A0270916B028B
:101050000E94F91AEC01D9CF62E370E080E090E0E1
:101060000E94311683E793E00E9465116CE370E003
:1010700080E090E00E9431160150110909F08CCFF8
:10108000DF91CF911F910F910895CF93DF93C0917E
:101090008803D0918903C130D10509F47EC0C230E4
:1010A000D10509F434C1CD2B09F047C283E793E0A1
:1010B0000E94991140E060E083E793E00E94C70F2F
:1010C00067E172E083E793E00E948D1983E793E084
:1010D0000E94651160ED77E080E090E00E9431169B
:1010E00083E793E00E94991140E060E083E793E09A
:1010F0000E94C70F61E272E083E793E00E948D19BE
:101100006091C7017091C8014AE050E083E793E025
:101110000E947C1A83E793E00E94651160ED77E0FE
:1011200080E090E00E94311683E793E00E949911DD
:101130002091C7013091C80180910E0190910F015B
:1011400082179307F8F482E090E0909389038093EC
:10115000880340E060E083E793E00E94C70F8FE5DB
:1011600080931C0180E280931D0180931E01809377
:101170001F0110927102109270021092850310925A
:101180008403DBC181E090E090938903809388031E
:101190001092710210927002D0C1809170029091F1
:1011A00071028F3C9F4F0CF4ADC083E793E00E9427
:1011B00099114091700260E083E793E00E94C70FAD
:1011C00060E171E083E793E00E949A1960910A015F
:1011D00070910B014AE050E083E793E00E94571AB8
:1011E00064E171E083E793E00E949A1960910C0139
:1011F00070910D014AE050E083E793E00E94571A96
:1012000068E171E083E793E00E949A1960910E0112
:1012100070910F014AE050E083E793E00E94571A73
:1012200083E793E00E946511809184039091850388
:101230000B9709F049C081E480931001809311015C
:101240008093120182E480931401809315018093AE
:10125000160183E4809318018093190180931A0189
:1012600083E090E090930B0180930A0182E090E08C
:1012700090930D0180930C01D0930F01C0930E0148
:1012800060E171E080E090E00E946C0364E171E055
:1012900084E090E00E946C0368E171E088E090E0F7
:1012A0000E946C036AE071E08CE090E00E94A00371
:1012B0006CE071E08EE090E00E94A0036EE071E0CF
:1012C00080E190E00E94A0038091840390918503C7
:1012D000099771F410928703109286031092850388
:1012E0001092840383E793E0DF91CF910C949911DE
:1012F0008091700290917102019790937102809396
:1013000070021BC1109287031092860316C1809150
:101310008403909185038130910549F4E091700236
:10132000F0917102E45EFE4F80818F5F0BC08730C9
:10133000910551F4E0917002F0917102E45EFE4F6C
:1013400080818150808317C08930910591F480910C
:1013500070029091710201969093710280937002D5
:101360008330910544F4FC01E45EFE4F2FE52083B9
:1013700002C0892B21F0109285031092840383E729
:1013800093E00E94991140E060E083E793E00E94BF
:10139000C70F60911C0183E793E00E948F19609151
:1013A0001D0183E793E00E948F1960911E0183E77E
:1013B00093E00E948F1968E572E083E793E00E9452
:1013C0008D196091C7017091C8014AE050E083E730
:1013D00093E00E947C1A83E793E00E94651180915C
:1013E000700290917102039709F0A7C081E090E02C
:1013F00090938903809388038091C7019091C801DD
:1014000040910A0150910B0120910C0130910D0186
:101410004817590788F530930F0120930E0120914A
:101420001401209318012091150120931901209196
:10143000160120931A0150930D0140930C01209145
:101440001001209314012091110120931501209186
:1014500012012093160190930B0180930A01809151
:101460001C018093100180911D01809311018091D6
:101470001E01809312013BC02817390708F53093ED
:101480000F0120930E012091140120931801209147
:101490001501209319012091160120931A019093B0
:1014A0000D0180930C0180911C01809314018091A7
:1014B0001D018093150180911E018093160117C0B4
:1014C00020910E0130910F0128173907B0F5909344
:1014D0000F0180930E0180911C018093180180916F
:1014E0001D018093190180911E0180931A0160E112
:1014F00071E080E090E00E946C0364E171E084E0C0
:1015000090E00E946C0368E171E088E090E00E9446
:101510006C036AE071E08CE090E00E94A0036CE054
:1015200071E08EE090E00E94A0036EE071E080E147
:1015300090E0DF91CF910C94A003DF91CF910895BB
:10154000DF92EF92FF920F931F93CF93DF93482F79
:10155000D92E20916E0230916F02C0916A02D09113
:101560006B0280916C0290916D020196BE010E9407
:10157000F91A8C01E0906802F09069022017310797
:1015800091F0F901EE0FFF1FEE0DFF1D81818D110E
:1015900003C08081841749F0C9010196BE010E94F1
:1015A000F91A9C01EBCF80E001C081E0DF91CF917F
:1015B0001F910F91FF90EF90DF9008952091D1013E
:1015C00028177CF42091D20182175CF48091D0011D
:1015D00098173CF481E02091CF0129171CF480E09A
:1015E000089581E008952F923F924F925F926F92FB
:1015F0007F928F929F92AF92BF92CF92DF92EF92A3
:10160000FF920F931F93CF93DF932091CB013091E3
:10161000CC018091840390918503232BC1F4099719
:10162000F1F581E090E09093CC018093CB01809123
:10163000800390918103029729F483E793E00E944D
:101640008E1229C083E793E00E94991124C0099764
:1016500031F51092CC011092CB0183E793E00E9408
:10166000991140E060E083E793E00E94C70F67E2D2
:1016700072E083E793E00E948D196091C701709139
:10168000C8014AE050E083E793E00E947C1A83E7B8
:1016900093E00E946511109285031092840380915B
:1016A000CB019091CC01019731F482E090E09093CE
:1016B000CC018093CB01C1E0D0E005E010E038E13F
:1016C000E32EF12C4CE0242E51E2C52ED12C80913A
:1016D000CB019091CC018230910508F46AC182302F
:1016E000910521F084309105D9F0F9CF88E692E098
:1016F0000E94FD03A0902001A80E88E692E00E94BF
:10170000FD03B0902101B90EC5010E94A00A81110C
:1017100066C1C5010E94DE0A882309F46BC15FC15E
:101720008091C7019091C80101969093C801809360
:10173000C701809182039091830301969093830364
:10174000809382036FE272E083E993E00E949A192A
:1017500060918203709183034AE050E083E993E053
:101760000E94821A2091820330918303C901B8013B
:101770000E94E51A049709F047C080918003909178
:10178000810381309105F1F01CF4892B89F03CC074
:101790008230910549F10397B9F58091D2018150CA
:1017A0008093D2018091D1018F5F8093D1011CC0C1
:1017B000C9016AE070E00E94E51A099729F50E94C4
:1017C000890722C08091D20181508093D2018091FB
:1017D000D1018F5F8093D101C9016DE270E00E9459
:1017E000E51A8C9789F4EBCF8091D00182508093D9
:1017F000D0018091CF018E5F8093CF01C901B601E6
:101800000E94E51A8097D9F2809182039091830318
:10181000B8010E94E51A4091D201E091D1010397ED
:1018200069F0242F332727FD30956E2F772767FD2A
:101830007095C901861B970B05975CF5242F3327FC
:1018400027FD309524503109442737FD4095542F0A
:101850006E2F772767FD70956C5F7F4F882777FD28
:101860008095982F0E94BC1A609322012091D0018C
:10187000332727FD309524503109442737FD409503
:10188000542F6091CF01772767FD70956C5F7F4F74
:1018900022C021503109442737FD4095542F6F5FF6
:1018A0007F4F882777FD8095982F0E94BC1A609300
:1018B00022012091D001332727FD30952150310995
:1018C000442737FD4095542F6091CF01772767FD5E
:1018D00070956F5F7F4F882777FD8095982F0E94C6
:1018E000BC1A60932301F8E18F2E912CA12CB12C0E
:1018F0003701681879084090220150902301C201F5
:101900000E94A00A3090D10181110BC0C2010E9437
:10191000DE0A811106C099249394930CA12CB12C5A
:101920003EC081149104A104B104A9F32091D20115
:10193000332727FD309522503109442737FD409544
:10194000542F832D992787FD9095029661E066229A
:101950007724860D971DBC01882777FD8095982FE9
:101960000E94BC1A60932201A501940160E070E01E
:10197000CB010E94BC1A6093230181E0881A910870
:10198000A108B108B5CF68E1A616B10409F4D2C028
:1019900090922201209223016FEFA61AB60A80913D
:1019A0002201909123010E94DE0A882309F4C2C01B
:1019B000EACF83E793E0DF91CF911F910F91FF90E2
:1019C000EF90DF90CF90BF90AF909F908F907F90DF
:1019D0006F905F904F903F902F900C94651182E034
:1019E00090E090938703809386031092890310926E
:1019F0008803EEC168E672E0C5010E94C8038091C9
:101A00008003909181038230910509F044C0A09039
:101A10006E02B0906F0280916C0290916D020196FF
:101A200060916A0270916B020E94F91AA816B906B9
:101A3000C9F0C501880F991FE0916802F091690211
:101A4000E80FF91F4081618183E793E00E94321023
:101A5000C501019660916A0270916B020E94F91AA9
:101A60005C01D9CF409122016091230183E793E08B
:101A70000E94321088E692E00E94FD0380912301CB
:101A800089130FC188E692E00E94FD039091220124
:101A9000981307C13CC1833091050CF085C097FDB8
:101AA00044C0A0906E02B0906F0280916C02909141
:101AB0006D02019660916A0270916B020E94F91AA0
:101AC000A816B906C9F0C501880F991FE0916802F0
:101AD000F0916902E80FF91F4081618183E793E08B
:101AE0000E942F10C501019660916A0270916B02ED
:101AF0000E94F91A5C01D9CF409122016091230123
:101B000083E793E00E942F1088E692E00E94FD0395
:101B10008091230189138FC088E692E00E94FD0323
:101B200090912201981387C0F2C088E692E00E944B
:101B30000B0435C08091C7019091C8018C9739F58D
:101B40002091D201332727FD3095225031094427B7
:101B500037FD4095542F632D772767FD70956E5F95
:101B60007F4F882777FD8095982F0E94BC1A60933D
:101B7000220197012A193B09442737FD4095542F2C
:101B800060E070E0CB010E94BC1A60932301409199
:101B900022016091230183E793E00E942F10D093EC
:101BA000CC01C093CB0193CD039709F0BECFA09099
:101BB0006E02B0906F0280916C0290916D0201965E
:101BC00060916A0270916B020E94F91AA816B90618
:101BD000C9F0C501880F991FE0916802F091690270
:101BE000E80FF91F4081618183E793E00E942F1085
:101BF000C501019660916A0270916B020E94F91A08
:101C00005C01D9CF409122016091230183E793E0E9
:101C10000E942F1088E692E00E94FD03809123012C
:101C200089137CC088E692E00E94FD039091220116
:101C3000981374C06CC080916E0290916F02880FEF
:101C4000991FE0916802F0916902E80FF91F408145
:101C5000618183E793E00E943210A12CB12C809126
:101C6000D101992787FD90958A159B050CF45DCFCE
:101C7000912C4091D2014A0D692D83E793E00E9497
:101C80002F104091D1014A19692D83E793E00E94FA
:101C90002F10939468E19612ECCF8FEFA81AB80A30
:101CA000DECF80916E0290916F02880F991FE091B4
:101CB0006802F0916902E80FF91F4081618183E7B2
:101CC00093E00E942F10A12CB12C8091CF01992775
:101CD00087FD90958A159B050CF427CF912C609178
:101CE000D0016A0D492D83E793E00E943210609184
:101CF000CF016A19492D83E793E00E943210939433
:101D000060E19612ECCF8FEFA81AB80ADECF84E01C
:101D100090E09093CC018093CB015AC080916E02E9
:101D200090916F02880F991FE0916802F09169020B
:101D3000E80FF91F4081618183E793E00E94321030
:101D4000A12CB12C8091D101992787FD90958A15FE
:101D50009B051CF4A12CB12C30C0912C4091D201D8
:101D60004A0D692D83E793E00E942F104091D10125
:101D70004A19692D83E793E00E942F10939468E13C
:101D80009612ECCF8FEFA81AB80ADCCF6091D00181
:101D90006A0D492D83E793E00E942F106091CF01D7
:101DA0006A19492D83E793E00E942F10939460E114
:101DB0009612ECCF8FEFA81AB80A8091CF0199271D
:101DC00087FD90958A159B050CF4AFCE912CDECF44
:101DD000DF91CF911F910F91FF90EF90DF90CF9007
:101DE000BF90AF909F908F907F906F905F904F903B
:101DF0003F902F90089580918603909187038130C2
:101E0000910539F08230910531F0892B31F40C9431
:101E1000AD060C94F30A0C944508089584E093E011
:101E20000E949115882339F0992787FD909590930A
:101E3000850380938403209184033091850340912E
:101E4000CD015091CE01C901880F991F820F931FB8
:101E500064E2649FF001659FF00D1124E80FF91F03
:101E6000EE58FD4F2081332727FD30953093CE016A
:101E70002093CD01629FF001639FF00D1124E80FC4
:101E8000F91FEE58FD4F818180932001828180935C
:101E900021010895809102039091030360EA7FE09D
:101EA0000E94F91A892B11F40E94FB0E8091020303
:101EB000909103030E940E0F8091020390910303FF
:101EC000019690930303809302030895EF920F937A
:101ED00024E043E062E083E793E00E947F0F73E039
:101EE000E72E04E024E231E047E251E06BEB71E0E1
:101EF00084E093E00E94B0120F91EF9008950F9349
:101F00001F93CF93DF93CDB7DEB7E9970FB6F89461
:101F1000DEBF0FBECDBF8C01FC011382128289E3AC
:101F200092E09183808386E390E029AF48AF6FAB66
:101F30000E946E1BF80195838483FE013796DE01B3
:101F4000D7966FA948AD29AD1192EA17FB07E1F7C3
:101F50006B832C834D832FEF2E8326E3FE01319676
:101F6000DC0101900D922A95E1F781E0F80186836A
:101F700088E1878380E18087E9960FB6F894DEBF19
:101F80000FBECDBFDF91CF911F910F910895FC013E
:101F9000618742870895FC0163870895FC01648787
:101FA0000895FB0123E0F695E7952A95E1F7E80F00
:101FB000F91F6770772781E090E0062E01C0880F37
:101FC0000A94EAF79681982B96830895FB0133E0F3
:101FD000F695E7953A95E1F7E80FF91F67707727CF
:101FE00081E090E0062E01C0880F0A94EAF7809500
:101FF0009681892386830895FC01862F9085491751
:1020000068F59781691750F568E10E94D91A9830F0
:1020100028F0903130F467E870E005C067E070E0C8
:1020200002C067E071E09770691B7109483010F4D5
:10203000440F02C0440F4F5038E0439F600D711DA4
:10204000112436E3839FC001112444815581840FFC
:10205000951F21110C94D10F0C94E60F089521E0E7
:102060000C94FC0F20E00C94FC0FAF92BF92CF9227
:10207000DF92EF92FF920F931F93CF93DF936C0148
:10208000A42EF62EC22FD0E0C60FD11D10E0040FF3
:10209000111D8F2D90E08C179D0784F4BA2C8B2D89
:1020A00090E08017910744F42E2D4B2D6F2DC60123
:1020B0000E94FC0FB394F3CFF394EBCFDF91CF9159
:1020C0001F910F91FF90EF90DF90CF90BF90AF9056
:1020D00008953F924F925F926F927F928F929F925C
:1020E000AF92BF92CF92DF92EF92FF920F931F9326
:1020F000CF93DF935C01662E542E402E1E2D85E07B
:10210000280260011124962EC0E0D0E0C601885953
:102110009F4F6C01F601EC0FFD1F7490852CF12C84
:102120003C2E360C70FE12C0113041F4242D4F2D80
:10213000450D632DC5010E94FC0F08C0E42C012F42
:10214000212F482D692DC5010E9435107694F394F6
:10215000810E98E0F912E6CF2196910EC530D10597
:10216000C9F6DF91CF911F910F91FF90EF90DF9013
:10217000CF90BF90AF909F908F907F906F905F9027
:102180004F903F900895EF920F931F93CF93DF935B
:10219000EC01262F6A3049F49B858A8528E0929FBE
:1021A000800D11248A87198611C06D3079F00C8555
:1021B00010E0EB844A8569850E9469109B85892F10
:1021C000880F890F880F9985980F998781E090E093
:1021D000DF91CF911F910F91EF900895DF92EF92D1
:1021E000FF920F931F93CF93DF93EC017B01D42ECB
:1021F00061E08A810E94BD1601E010E060E0DD2010
:10220000E1F08C810E94F6168FEF8D0D980102C0CF
:10221000220F331F8A95E2F7C9018E219F21892B56
:1022200011F061E001C060E08A810E94F61661E071
:102230008C810E94F616DA94E1CF8A81DF91CF91EA
:102240001F910F91FF90EF90DF900C94BD160F93AC
:102250001F93CF93DF93EC0160E08B810E94F61611
:1022600043E065E070E0CE010E94EE1047E060E0E0
:1022700070E0CE010E94EE1000E010E098818981AC
:102280009802C001112497FD079633E09595879534
:102290003A95E1F70817190780F4FE01E00FF11FE6
:1022A000668170E0762F66278781682B40E1CE013A
:1022B0000E94EE100E5F1F4FE1CF61E08B81DF9136
:1022C000CF911F910F910C94F6161F93CF93DF932C
:1022D000EC0110E08E81181758F48C819D8126E363
:1022E000129F800D911D11240E9427111F5FF2CFB4
:1022F000DF91CF911F910895FC013081218132023D
:102300009001112437FF02C0295F3F4F53E03595FC
:1023100027955A95E1F760E0462F50E042175307A2
:1023200034F4FC01E40FF51F16826F5FF5CF0C94B7
:1023300027111F93CF93DF93EC0110E08E811817C4
:1023400058F48C819D8126E3129F800D911D1124EC
:102350000E947C111F5FF2CFDF91CF911F910895F2
:102360000F931F93CF93DF93EC01062F10E01460BF
:1023700060E08B810E94F616B801660F771F4CE073
:10238000CE010E94EE1061E08B81DF91CF911F9111
:102390000F910C94F6161F93CF93DF93EC01162F39
:1023A00061E08B810E94BD1661E08B810E94F61670
:1023B00061E08C810E94BD1661E08C810E94F6165E
:1023C00061E08A810E94BD168D8187FD07C061E0B2
:1023D0000E94BD1661E08D810E94F61661E0CE017B
:1023E0000E94B01163E0CE010E94B01168E0CE01FE
:1023F0000E94B01164E1CE010E94B01168E1CE01EB
:102400000E94B011612FCE010E94B0116FEACE017F
:102410000E94B01188E1888380E18983DF91CF91A8
:102420001F9108950F931F93CF93DF93EC01062F15
:1024300010E08E81181760F48C819D81602F26E357
:10244000129F800D911D11240E94CB111F5FF1CFAF
:10245000DF91CF911F910F910895603108F06FE0E7
:10246000606A0C94B0110F931F93CF93DF93EC012C
:10247000062F10E08E81181760F48C819D81602FEB
:1024800026E3129F800D911D11240E942D121F5FC3
:10249000F1CFDF91CF911F910F910895662311F035
:1024A00069E001C068E00C94B0110F931F93CF93C3
:1024B000DF93EC01062F10E08E81181760F48C81F9
:1024C0009D81602F26E3129F800D911D11240E9493
:1024D0004E121F5FF1CFDF91CF911F910F910895A1
:1024E000FC013081218132029001112437FF02C0AA
:1024F000295F3F4FF3E035952795FA95E1F760E0C6
:102500007FEF462F50E04217530734F4FC01E40FED
:10251000F51F76836F5FF5CF0C9427111F93CF9330
:10252000DF93EC0110E08E81181758F48C819D81A7
:1025300026E3129F800D911D11240E9470121F5FCF
:10254000F2CFDF91CF911F910895862F642F0C94C5
:10255000BD16862F642F0C94F616862F0C942C171C
:102560004F925F926F927F928F929F92AF92BF92A3
:10257000CF92DF92EF920F93CF93DF93EC014B0159
:102580003A01590102960E94B21581E492E09983C2
:1025900088836E018CE1C80ED11C26018CE3480EA5
:1025A000511CC6010E94B21586E0C80ED11CC4148D
:1025B000D504B9F7FE01EE59FF4F71826082329661
:1025C000B182A082329600833196E0823797918261
:1025D000808238968AE090E091838083329684EFFF
:1025E00091E09183808333961182108271971082DB
:1025F000118212821382C459DF4F1882DF91CF916A
:102600000F91EF90DF90CF90BF90AF909F908F9001
:102610007F906F905F904F9008952F923F924F92CE
:102620005F926F927F928F929F92AF92BF92CF9262
:10263000DF92EF92FF920F931F93CF93DF93CDB76B
:10264000DEB728970FB6F894DEBF0FBECDBF9887D0
:102650008F83F12C4C0186E6880E911C0F81188522
:102660000E591F4FD4018C91F816A0F4AF81B88594
:102670008D919C91F801A081B181AF0DB11DFC013C
:102680002081318142E06C918F819885F901099513
:10269000F394E8CF512CEF81F885E959FF4FFA8385
:1026A000E9830F8118850C591F4FC12CD12C76015D
:1026B000C3948F8198858E599F4F9C838B83A9816A
:1026C000BA818C91581608F088C0A52CB12CAF8126
:1026D000B8858D919C91F801A081B181AA0DBB1D97
:1026E000FC012081318141E06C918F819885F90155
:1026F0000995AF81B8858D919C91F801A081B18138
:10270000AA0DBB1DFC012281338140E06C918F81B9
:102710009885F9010995D701C601052C04C0880FD9
:10272000991FAA1FBB1F0A94D2F79C011C01209479
:102730003094412CD4018C91EF81F88540815181F6
:10274000481648F5642C712CEB81FC81A081B18185
:10275000A60DB71DFA01448155816C918F81988532
:102760002D833E83FA010995660C771C2D813E81ED
:10277000EF81F885E60DF71D892B29F48085918579
:10278000822B932B04C08085918582219321918790
:1027900080874394CFCFF801A081B181AA0DBB1DE2
:1027A000FA012281338141E06C918F819885F90192
:1027B0000995AF81B8858D919C91F801A081B18177
:1027C000AA0DBB1DFC012081318140E06C918F81FD
:1027D0009885F9010995539472CF28960FB6F8940D
:1027E000DEBF0FBECDBFDF91CF911F910F91FF9044
:1027F000EF90DF90CF90BF90AF909F908F907F90A1
:102800006F905F904F903F902F900895FC0180E073
:1028100090E0258D368D2617370739F001963696CC
:102820008A309105B1F78FEF9FEF0895DC0126E024
:10283000629FA00DB11D112490965C934E935F97FB
:1028400021E091962C939197FC01E459FF4F208150
:1028500031960190F081E02D222331F0309749F03C
:10286000611107C0DC0102C0309719F05C968C91B1
:1028700009940895CF92DF92FF920F931F93CF9305
:10288000DF931F92CDB7DEB76C01F62EFC0186E018
:10289000689FE00DF11D112411A2878D90A1813058
:1028A0009105F1F01CF4892B51F046C0823091055E
:1028B00099F1039709F040C040E050E031C0442353
:1028C000D9F141E050E0C6010E9416140E940216A0
:1028D000F601E85AFF4F60837183828393832CC093
:1028E00049830E940216F601E85AFF4F00811181C8
:1028F00022813381601B710B820B930B72960081D6
:10290000118120E030E049810617170728073907B1
:1029100018F442E050E004C041110EC043E050E022
:102920006F2DC6010F90DF91CF911F910F91FF90F6
:10293000DF90CF900C9416140F90DF91CF911F91E0
:102940000F91FF90DF90CF9008952F923F924F927A
:102950005F926F927F928F929F92AF92BF92CF922F
:10296000DF92EF92FF920F931F93CF93DF931F920B
:10297000CDB7DEB71C01FC014AE08FEF9FEF278D3A
:1029800030A1232B21F4148E968F858F11A24150F4
:1029900036964111F4CF712C610126E6C20ED11C8E
:1029A000510187E6A80EB11C4101A0E68A0E911CD8
:1029B00046E0442ED6018C91781608F055C0612C63
:1029C0008101070D111D070D111D085F1F4FF50136
:1029D000E0806E1408F046C0F80140815181062C59
:1029E00002C0569547950A94E2F741707E9C7001AB
:1029F0001124E60CF11CD401ED91FC91EE0DFF1DAC
:102A00005080B701C10149830E940614498197FD96
:102A100002C0682F1BC0019619F5442309F180E01C
:102A200090E060E070E0F101E80FF91F248D2111C2
:102A300011C0469EF001479EF00D1124E20DF31DDA
:102A4000548EF68EE58E10A2178E41E0C1010E94D1
:102A50003A1406C06F5F7F4F06966A30710519F70A
:102A60006394B5CF7394A6CF20E030E080E0F1010D
:102A7000E20FF31F91A1911181E02A5F3F4F2C33A8
:102A80003105A9F70F90DF91CF911F910F91FF9022
:102A9000EF90DF90CF90BF90AF909F908F907F90FE
:102AA0006F905F904F903F902F900895CF92DF925C
:102AB000EF92FF920F931F93CF93DF938C010E94AD
:102AC0000216E801C45ADF4FC880D980EA80FB8033
:102AD0006C197D098E099F09F801E859FF4FC080E4
:102AE000D180E12CF12CC616D706E806F90670F461
:102AF000C8010E940D13C8010E94A514182F0E943E
:102B00000216688379838A839B8301C010E0812F3A
:102B1000DF91CF911F910F91FF90EF90DF90CF90B9
:102B200008950F931F93CF93DF93EC018C01045909
:102B30001F4F81E0F8018083CE010E945615882343
:102B400049F089A1882331F08F8D98A1019711F464
:102B50008C8D03C0F801108280E0DF91CF911F912E
:102B60000F910895FC01108214821382158208953A
:102B70001F920F920FB60F9211242F933F938F93B2
:102B80009F93AF93BF9380918B0390918C03A091FF
:102B90008D03B0918E0330918A0323E0230F2D37EC
:102BA00020F40196A11DB11D05C026E8230F029651
:102BB000A11DB11D20938A0380938B0390938C03F6
:102BC000A0938D03B0938E0380918F039091900317
:102BD000A0919103B09192030196A11DB11D809324
:102BE0008F0390939003A0939103B0939203BF91AE
:102BF000AF919F918F913F912F910F900FBE0F90AA
:102C00001F9018952FB7F89460918B0370918C03E7
:102C100080918D0390918E032FBF08953FB7F89454
:102C200080918F0390919003A0919103B0919203B2
:102C300026B5A89B05C02F3F19F00196A11DB11D17
:102C40003FBF6627782F892F9A2F620F711D811D34
:102C5000911D42E0660F771F881F991F4A95D1F793
:102C60000895CF92DF92EF92FF92CF93DF936B01A3
:102C70007C010E940E16EB01C114D104E104F104A1
:102C800089F00E94D81A0E940E166C1B7D0B683EBC
:102C9000734090F381E0C81AD108E108F108C851E7
:102CA000DC4FEACFDF91CF91FF90EF90DF90CF9094
:102CB0000895789484B5826084BD84B5816084BDB4
:102CC00085B5826085BD85B5816085BDEEE6F0E0A5
:102CD000808181608083E1E8F0E010828081826001
:102CE0008083808181608083E0E8F0E08081816082
:102CF0008083E1EBF0E0808184608083E0EBF0E0B2
:102D0000808181608083EAE7F0E080818460808355
:102D100080818260808380818160808380818068FF
:102D200080831092C1000895833081F028F48130AF
:102D300099F08230A1F008958730A9F08830B9F079
:102D40008430D1F4809180008F7D03C08091800019
:102D50008F7780938000089584B58F7702C084B503
:102D60008F7D84BD08958091B0008F7703C08091DE
:102D7000B0008F7D8093B0000895CF93DF9390E0F3
:102D8000FC01E958FA4F2491FC01E557FA4F849170
:102D9000882349F190E0880F991FFC01ED54FA4F08
:102DA000A591B49187559A4FFC01C591D4919FB7D5
:102DB000611108C0F8948C91209582238C938881AE
:102DC00082230AC0623051F4F8948C91322F3095EE
:102DD00083238C938881822B888304C0F8948C9100
:102DE000822B8C939FBFDF91CF9108950F931F93F8
:102DF000CF93DF931F92CDB7DEB7282F30E0F901D4
:102E0000ED59FA4F8491F901E958FA4F1491F901FB
:102E1000E557FA4F04910023C9F0882321F0698314
:102E20000E9494166981E02FF0E0EE0FFF1FE75536
:102E3000FA4FA591B4919FB7F8948C91611103C09A
:102E40001095812301C0812B8C939FBF0F90DF9140
:102E5000CF911F910F910895CF93DF93282F30E0EA
:102E6000F901ED59FA4F8491F901E958FA4FD491DB
:102E7000F901E557FA4FC491CC2391F081110E94DA
:102E80009416EC2FF0E0EE0FFF1FE156FA4FA591DC
:102E9000B4912C912D2381E090E021F480E002C0D8
:102EA00080E090E0DF91CF910895FC01818D228D2B
:102EB00090E0805C9F4F821B91098F739927089542
:102EC000FC01918D828D981731F0828DE80FF11DF4
:102ED000858D90E008958FEF9FEF0895FC01918D0F
:102EE000828D981761F0828DDF01A80FB11D5D966C
:102EF0008C91928D9F5F9F73928F90E008958FEFDA
:102F00009FEF089582EF98E1892B49F080E090E0EF
:102F1000892B29F00E94F21881110C940000089569
:102F2000FC01848DDF01A80FB11DA35ABF4F2C9166
:102F3000848D90E001968F739927848FA689B78935
:102F40002C93A089B1898C9180648C93938D848D0E
:102F5000981306C00288F389E02D80818F7D8083DD
:102F60000895CF93DF93EC01888D8823C9F0EA8917
:102F7000FB89808185FD05C0A889B9898C9186FD72
:102F80000FC00FB607FCF5CF808185FFF2CFA8896F
:102F9000B9898C9185FFEDCFCE010E949017E7CFC4
:102FA000DF91CF910895CF92DF92FF920F931F93FD
:102FB000CF93DF931F92CDB7DEB76C0181E0D601CE
:102FC00058968C9358975B969C915B975C968C91E6
:102FD0005C97981307C05096ED91FC9151978081B2
:102FE00085FD2EC0F601038D10E00F5F1F4F0F739C
:102FF0001127F02EF601848DF81211C00FB607FCD0
:10300000F9CFD6015096ED91FC915197808185FFC3
:10301000F1CFC60169830E9490176981EBCF838D40
:10302000E80FF11DE35AFF4F6083D6015B960C93C6
:103030005B975296ED91FC915397808180620CC012
:10304000D6015696ED91FC91579760835096ED917D
:10305000FC91519780818064808381E090E00F90A3
:10306000DF91CF911F910F91FF90DF90CF90089546
:10307000BF92CF92DF92EF92FF92CF93DF93EC015A
:103080006A017B01B22EE889F98982E080834115CB
:1030900081EE580761057105A1F060E079E08DE3EC
:1030A00090E0A70196010E940D1B215031094109B2
:1030B00051095695479537952795211580E1380791
:1030C00098F0E889F989108260E874E88EE190E070
:1030D000A70196010E940D1B215031094109510998
:1030E0005695479537952795EC85FD853083EE8578
:1030F000FF852083188EEC89FD89B082EA89FB89DF
:10310000808180618083EA89FB89808188608083F7
:10311000EA89FB89808180688083EA89FB898081D4
:103120008F7D8083DF91CF91FF90EF90DF90CF90E4
:10313000BF9008951F920F920FB60F9211242F93F4
:103140008F939F93EF93FF93E091A303F091A403D8
:103150008081E091A903F091AA0382FD12C09081C1
:103160008091AC038F5F8F732091AD03821751F074
:10317000E091AC03F0E0ED56FC4F958F8093AC03EB
:1031800001C08081FF91EF919F918F912F910F90BE
:103190000FBE0F901F9018951F920F920FB60F92AF
:1031A00011242F933F934F935F936F937F938F934C
:1031B0009F93AF93BF93EF93FF9383E993E00E94B4
:1031C0009017FF91EF91BF91AF919F918F917F9158
:1031D0006F915F914F913F912F910F900FBE0F9084
:1031E0001F90189583E993E00E94551721E0892BE1
:1031F00009F420E0822F089510929603109295030F
:1032000088EE93E0A0E0B0E080939703909398035A
:10321000A0939903B0939A038BE492E09093940364
:103220008093930385EC90E09093A00380939F0399
:1032300084EC90E09093A2038093A10380EC90E053
:103240009093A4038093A30381EC90E09093A60352
:103250008093A50382EC90E09093A8038093A7034A
:1032600086EC90E09093AA038093A9031092AC039C
:103270001092AD031092AE031092AF03089508951B
:103280000E9459160E943F190E942704C2E8D7E104
:103290000E944A0F2097E1F30E948217F9CFCF9244
:1032A000DF92EF92FF920F931F93CF93DF936C0106
:1032B0007A01EB01E60EF71E00E010E0CE15DF0507
:1032C00061F06991D601ED91FC910190F081E02DC2
:1032D000C6010995080F191FF1CFC801DF91CF91E1
:1032E0001F910F91FF90EF90DF90CF90089561159F
:1032F000710581F0DB010D900020E9F7AD0141502F
:103300005109461B570BDC01ED91FC910280F381C2
:10331000E02D099480E090E008950C947719DC0189
:10332000ED91FC910190F081E02D099467E572E048
:103330000C9477190F931F93CF93DF93EC010E94A6
:1033400077198C01CE010E949619800F911FDF9191
:10335000CF911F910F9108958F929F92AF92BF923C
:10336000CF92DF92EF92FF920F931F93CF93DF9351
:10337000CDB7DEB7A1970FB6F894DEBF0FBECDBFB5
:103380007C01C42EE52FCB01D22E19A221E02D15F0
:1033900010F02AE0D22E8E010F5D1F4F8D2C912C44
:1033A000A12CB12C6C2D7E2FA50194010E940D1B28
:1033B0008C2DD29E80191124015011098A3014F4E9
:1033C000805D01C0895CF8018083211531054105CC
:1033D000510521F0C22EE32FCA01E4CFB801C70185
:1033E0000E947719A1960FB6F894DEBF0FBECDBF2D
:1033F000DF91CF911F910F91FF90EF90DF90CF90D1
:10340000BF90AF909F908F900895CF92DF92EF92F0
:10341000FF920F931F93CF93DF93EC016A017B011F
:103420002115310579F4E881F9810190F081E02DD1
:10343000642FDF91CF911F910F91FF90EF90DF905C
:10344000CF9009942A303105E9F477FF1AC06DE274
:103450000E948F198C0144275527BA014C195D0928
:103460006E097F092AE0CE010E94AC19800F911FDE
:10347000DF91CF911F910F91FF90EF90DF90CF9050
:1034800008952AE0B701A601CE01DF91CF911F91E7
:103490000F91FF90EF90DF90CF900C94AC199A01B0
:1034A000AB01662757FD6095762F0C94051A0F9394
:1034B0001F93CF93DF93EC019A01AB01662757FD71
:1034C0006095762F0E94051A8C01CE010E949619F4
:1034D000800F911FDF91CF911F910F9108952115BA
:1034E000310541F4DC01ED91FC910190F081E02D7A
:1034F000642F09940C94AC199A01AB0160E070E060
:103500000C946F1A0F931F93CF93DF93EC019A01E2
:10351000AB0160E070E00E946F1A8C01CE010E9446
:103520009619800F911FDF91CF911F910F910895F0
:10353000CF93DF9300D000D0CDB7DEB79B01AC01B5
:10354000611571058105910569F069833A834B83A3
:103550005C830E94E41C29813A814B815C810E943A
:103560002F1B03C060E070E0CB010F900F900F9015
:103570000F90DF91CF910895CF92DF92EF92FF925B
:103580006B017C01621773078407950764F4CA0115
:10359000B9016C197D098E099F090E94981A6C0D5A
:1035A0007D1D8E1D9F1DFF90EF90DF90CF900895A1
:1035B0000895991B79E004C0991F961708F0961B8F
:1035C000881F7A95C9F780950895AA1BBB1B51E106
:1035D00007C0AA1FBB1FA617B70710F0A61BB70B83
:1035E000881F991F5A95A9F780959095BC01CD0128
:1035F000089597FB072E16F4009407D077FD09D0A5
:103600000E94E51A07FC05D03EF4909581959F4FE6
:103610000895709561957F4F0895A1E21A2EAA1B17
:10362000BB1BFD010DC0AA1FBB1FEE1FFF1FA21772
:10363000B307E407F50720F0A21BB30BE40BF50B6F
:10364000661F771F881F991F1A9469F760957095F8
:10365000809590959B01AC01BD01CF010895052E89
:1036600097FB1EF400940E94461B57FD07D00E9452
:103670000D1B07FC03D04EF40C94461B509540954F
:10368000309521953F4F4F4F5F4F0895909580950E
:10369000709561957F4F8F4F9F4F08950E945F1BDC
:1036A000A59F900DB49F900DA49F800D911D112496
:1036B0000895EE0FFF1F0590F491E02D0994A29F4D
:1036C000B001B39FC001A39F700D811D1124911DF6
:1036D000B29F700D811D1124911D0895CF93DF932A
:1036E0008230910510F482E090E0E0913204F09194
:1036F000330420E030E0A0E0B0E0309739F14081C1
:10370000518148175907B8F04817590771F4828159
:103710009381109729F013969C938E9312972CC047
:10372000909333048093320427C02115310531F082
:103730004217530718F0A901DB0101C0EF019A01FC
:10374000BD01DF010280F381E02DD7CF21153105C6
:10375000F9F0281B390B2430310580F48A819B81D4
:103760006115710521F0FB019383828304C090935E
:10377000330480933204FE01329644C0FE01E20F0E
:10378000F31F8193919322503109398328833AC0E2
:103790002091300430913104232B41F42091020117
:1037A00030910301309331042093300420910001C3
:1037B000309101012115310541F42DB73EB74091FB
:1037C000040150910501241B350BE0913004F09168
:1037D0003104E217F307A0F42E1B3F0B281739071B
:1037E00078F0AC014E5F5F4F2417350748F04E0F5D
:1037F0005F1F50933104409330048193919302C032
:10380000E0E0F0E0CF01DF91CF910895CF93DF9317
:10381000009709F487C0FC01329713821282C0918D
:103820003204D0913304209781F420813181280F14
:10383000391F80913004909131048217930779F5F4
:10384000F0933104E09330046DC0DE0120E030E0FD
:10385000AE17BF0750F412964D915C9113979D01DE
:103860004115510509F1DA01F3CFB383A2834081F9
:103870005181840F951F8A179B0771F48D919C913C
:103880001197840F951F02969183808312968D91D4
:103890009C911397938382832115310529F4F0932A
:1038A0003304E09332043EC0D9011396FC93EE93A7
:1038B00012974D915D91A40FB51FEA17FB0779F49C
:1038C00080819181840F951F0296D90111969C9356
:1038D0008E938281938113969C938E931297E0E04E
:1038E000F0E08A819B81009719F0FE01EC01F9CF8D
:1038F000CE01029628813981820F931F20913004D6
:10390000309131042817390769F4309729F410925F
:1039100033041092320402C013821282D093310415
:10392000C0933004DF91CF9108958F929F92AF9210
:10393000BF92CF92DF92EF92FF92CF93DF93EC0191
:10394000688179818A819B81611571058105910565
:1039500021F464E279ED8BE597E02DE133EF41E06E
:1039600050E00E942F1B49015A019B01AC01A7EABC
:10397000B1E40E944E1B6B017C01ACEEB4EFA501DB
:1039800094010E940B1DC60ED71EE81EF91EF7FEFD
:1039900006C081E0C81AD108E10880E8F80AC882A8
:1039A000D982EA82FB82C701B6019F77DF91CF916E
:1039B000FF90EF90DF90CF90BF90AF909F908F904F
:1039C00008950E94951C089586E091E00E94951C40
:1039D0000895609306017093070180930801909306
:1039E00009010895F999FECF92BD81BDF89A9927F2
:1039F00080B50895262FF999FECF1FBA92BD81BDDB
:103A000020BD0FB6F894FA9AF99A0FBE0196089560
:103A1000B7FF0C944E1B0E944E1B821B930B089504
:043A2000F894FFCF48
:103A240000003404800001000000030002000100D3
:103A34004141410042424200434343002000000010
:103A440000010A0A060807090A0B0C00000000001E
:103A54000000000000000000000000000000000062
:103A6400000000000000010101000101010001014A
:103A7400010001000100010101000000000001003B
:103A84000000010101000101010001000100010029
:103A9400000000000000010101000100010001001C
:103AA400010001000100010101000000000000000C
:103AB40001000100010001010100010100000100F9
:103AC40000000000000001010100010001000100EC
:103AD40001000100010001010100000001020304D2
:103AE40005060708090A0B2D00010001000300FF69
:103AF40018FF10507573683A0046726F6E743A205E
:103B0400002C00506F7070696E673A20005649456A
:103B1400570A484953434F524553004E45570A47A5
:103B2400414D4500213F3F3F0A004C6576656C20BE
:103B34004368616E67650047414D450A4F564552DB
:103B44000053434F520A005061757365640A005371
:103B5400697A653A0000000000C3104F19000000A4
:103B640000A512A912AD1200000000D3174F195579
:103B7400176E176017B1170D0A006E616E00696E3B
:083B840066006F7666002E005A
:00000001FF
