:100000000C94E2020C940A030C940A030C940A0365
:100010000C940A030C940A030C940A030C940A032C
:100020000C940A030C940A030C940A030C940A031C
:100030000C940A030C940A030C940A030C940A030C
:100040000C942E0D0C940A030C9410100C94421076
:100050000C940A030C940A030C940A030C940A03EC
:100060000C940A030C940A0300000000003E5B4F4E
:100070005B3E3E6B4F6B3E1C3E7C3E1C183C7E3C08
:10008000181C577D571C1C5E7F5E1C00183C180016
:10009000FFE7C3E7FF0018241800FFE7DBE7FF30A6
:1000A000483A060E2629792926407F050507407F14
:1000B00005253F5A3CE73C5A7F3E1C1C08081C1C87
:1000C0003E7F14227F22145F5F005F5F06097F017D
:1000D0007F006689956A606060606094A2FFA29468
:1000E00008047E040810207E201008082A1C080836
:1000F0001C2A08081E101010100C1E0C1E0C303884
:100100003E3830060E3E0E06000000000000005F84
:1001100000000007000700147F147F14242A7F2AA0
:100120001223130864623649562050000807030062
:10013000001C2241000041221C002A1C7F1C2A08AE
:10014000083E080800807030000808080808000011
:1001500060600020100804023E5149453E00427F85
:10016000400072494949462141494D331814127FD4
:100170001027454545393C4A494931412111090774
:100180003649494936464949291E000014000000F5
:1001900040340000000814224114141414140041C7
:1001A00022140802015909063E415D594E7C121184
:1001B000127C7F494949363E414141227F414141BC
:1001C0003E7F494949417F090909013E4141517337
:1001D0007F0808087F00417F41002040413F017FA8
:1001E000081422417F404040407F021C027F7F0470
:1001F00008107F3E4141413E7F090909063E4151B9
:10020000215E7F09192946264949493203017F01A8
:10021000033F4040403F1F2040201F3F4038403FA9
:10022000631408146303047804036159494D4300BF
:100230007F4141410204081020004141417F0402F6
:10024000010204404040404000030708002054548D
:1002500078407F284444383844444428384444286B
:100260007F385454541800087E090218A4A49C78BE
:100270007F0804047800447D40002040403D007F1A
:100280001028440000417F40007C047804787C08FA
:100290000404783844444438FC18242418182424CE
:1002A00018FC7C08040408485454542404043F44B3
:1002B000243C4040207C1C2040201C3C4030403CE2
:1002C00044281028444C9090907C4464544C440042
:1002D00008364100000077000000413608000201A6
:1002E0000204023C2623263C1EA1A161123A404092
:1002F000207A385454555921555579412154547810
:1003000041215554784020545579400C1E527212A8
:100310003955555559395454545939555454580030
:1003200000457C410002457D420001457C40F029AA
:100330002429F0F0282528F07C54554500205454F9
:100340007C547C0A097F493249494932324848483D
:1003500032324A4848303A4141217A3A4240207884
:10036000009DA0A07D39444444393D4040403D3C7F
:1003700024FF2424487E4943662B2FFC2F2BFF09A2
:1003800029F620C0887E0903205454794100004496
:100390007D413048484A32384040227A007A0A0A81
:1003A000727D0D19317D2629292F282629292926F4
:1003B00030484D4020380808080808080808382F39
:1003C00010C8ACBA2F102834FA00007B00000814C3
:1003D0002A142222142A1408AA005500AAAA55AAEF
:1003E00055AA000000FF00101010FF00141414FFA5
:1003F000001010FF00FF1010F010F0141414FC0097
:100400001414F700FF0000FF00FF1414F404FC14A0
:100410001417101F10101F101F1414141F00101099
:1004200010F0000000001F101010101F101010100E
:10043000F010000000FF101010101010101010FF2E
:1004400010000000FF140000FF00FF00001F101745
:100450000000FC04F414141710171414F404F4002E
:1004600000FF00F714141414141414F700F71414F4
:1004700014171410101F101F141414F4141010F07B
:1004800010F000001F101F0000001F14000000FCEF
:10049000140000F010F01010FF10FF141414FF14DB
:1004A0001010101F00000000F010FFFFFFFFFFF012
:1004B000F0F0F0F0FFFFFF0000000000FFFF0F0F63
:1004C0000F0F0F38444438447C2A2A3E147E02021F
:1004D0000606027E027E0263554941633844443C6D
:1004E00004407E201E2006027E020299A5E7A599FF
:1004F0001C2A492A1C4C7201724C304A4D4D303036
:1005000048784830BC625A463D3E494949007E0120
:1005100001017E2A2A2A2A2A44445F444440514A3F
:10052000444040444A51400000FF0103E080FF0086
:100530000008086B6B083612362436060F090F06C2
:10054000000018180000001010003040FF010100EA
:100550001F01011E00191D1712003C3C3C3C00000D
:100560000000000000000800020100000304070072
:10057000000000000000000102040810204080017B
:1005800002040810200102040810200404040404DA
:100590000404040202020202020303030303030031
:1005A000000000230026002900000000002500288C
:1005B000002B0000000000240027002A00009D06F8
:1005C0007210F50611241FBECFEFD8E0DEBFCDBFFD
:1005D00013E0A0E0B1E0E0ECF8E202C005900D927B
:1005E000A831B107D9F724E0A8E1B3E001C01D921A
:1005F000A735B207E1F715E0C2ECD5E004C02297B9
:10060000FE010E94B412CE3BD107C9F70E94B6107A
:100610000C9453140C9400002091A1023091A2027A
:1006200080919D0290919E0237FD4AC02230310593
:1006300024F0243031050CF143C08330910561F082
:1006400085309105E9F522E030E03093A202209355
:10065000A10221E030E008C022E030E03093A202A5
:100660002093A1022FEF3FEF30931D0320931C0333
:1006700010921F0310921E0323C081309105A1F038
:1006800087309105E9F421E030E03093A202209315
:10069000A10210921D0310921C032FEF3FEF309325
:1006A0001F0320931E030CC01092A2021092A102FD
:1006B00010921D0310921C0390931F0380931E033E
:1006C00020919F023091A002232B49F4099769F4ED
:1006D00081E090E09093A00280939F020895099793
:1006E00021F41092A00210929F020895E0919503C8
:1006F000F09196032091970330919803AC01E21793
:10070000F30781F0A481B58112968D919C91139786
:100710008417950749F48D919C918617970721F4CA
:1007200081E0089580E008950280F381E02DE7CF15
:1007300021E06031710508F420E0822F089586E2FF
:1007400093E00E94070D992787FD909590939E0254
:1007500080939D020895EF92FF920F931F93CF9382
:10076000DF938C017B0186E090E00E94C510EC01D4
:10077000198218821B821A821D821C8284E090E0FA
:100780000E94C510D7014D915D916D917C91FC0146
:1007900040835183628373839D838C83D801ED9161
:1007A000FC911197D183C08319821882FB83EA835D
:1007B0001196DC93CE9314968D919C91159701968A
:1007C00015969C938E931497DF91CF911F910F9163
:1007D000FF90EF900895CF92DF92EF92FF920F93E8
:1007E0001F93CF93DF9300D000D0CDB7DEB726E0C4
:1007F00040E855E260E070E086EB93E00E94AE0FC7
:1008000064E28CE993E00E9488098CE993E00E94FD
:10081000040A64EF71E080E090E00E94A70D8CE98B
:1008200093E00E940F090AE010E01A83098382E036
:1008300090E09C838B83BE016F5F7F4F85E993E0DF
:100840000E94AB031A83098383E090E09C838B832F
:10085000BE016F5F7F4F85E993E00E94AB031A836F
:10086000098384E090E09C838B83BE016F5F7F4FA0
:1008700085E993E00E94AB0381E1E82E81E0F82E48
:10088000D12C00E010E0C12CF701E00FF11F8081B6
:10089000813051F44C2D6D2D8CE993E00E94A50719
:1008A0008CE993E00E94DB08C394085E1F4F003878
:1008B00081E0180749F7D3948FEFE81AF80A88E126
:1008C000D812DFCF61E08CE993E00E94CB0960EDA4
:1008D00077E080E090E00E94A70D60E08CE993E073
:1008E0000E94CB091FE0612F8CE993E00E94A909C7
:1008F00086E293E00E94070D882329F0682F86EB9B
:1009000093E00E94241164E670E080E090E00E9491
:10091000A70D115040F710E0612F8CE993E00E9481
:10092000A90986E293E00E94070D882329F0682F29
:1009300086EB93E00E94241164E670E080E090E092
:100940000E94A70D1F5F103139F710E08CE993E08A
:100950000E9444071817A8F400E08CE993E00E9475
:100960004107081760F4412F602F8CE993E00E9443
:10097000A8078CE993E00E94DB080F5FEECF1F5FB2
:10098000E5CF8AE090E09093210380932003909339
:100990002303809322034AE06AE08CE993E00E94FB
:1009A000A5078CE993E00E94DB086CE271E080E02F
:1009B00090E00E94A70D0F900F900F900F90DF9185
:1009C000CF911F910F91FF90EF90DF90CF900895FE
:1009D0004F925F926F927F928F929F92AF92BF924F
:1009E000CF92DF92EF92FF920F931F93CF93DF93FB
:1009F00000D000D0CDB7DEB763EA72E086EB93E0BB
:100A00000E94121192E0A92EB12CCC24C394D12CB7
:100A100034E0832E912C80919F029091A00282302D
:100A2000910508F4C5C08230910509F448C00497C7
:100A300009F0B9C027E130E040E050E061E070E04B
:100A400080E090E00E9415127093210360932003D0
:100A50002FE030E040E050E061E070E080E090E0C6
:100A60000E941512709323036093220367EB72E0D8
:100A700086EB93E00E941211609120037091210394
:100A80004AE050E086EB93E00E94D91161EC72E0FD
:100A900086EB93E00E941211609122037091230370
:100AA0004AE050E086EB93E00E94D9114091220386
:100AB000609120038CE993E00E94A50770C0E0914B
:100AC0009503F09196030480F581E02DE080F1809C
:100AD00080911C0390911D03E80EF91E27010091DF
:100AE0001E0310911F0382819381080F191F380183
:100AF000C301B2010E947603811175C0C301B20126
:100B00000E94980381116FC077C0ED91FC91048021
:100B1000F581E02D40816281E0919503F09196038B
:100B20000480F581E02D2281338180912003909112
:100B300021032817390709F485C08CE993E00E9446
:100B4000A8078091990390919A03892B41F1E09134
:100B50009703F09198030081118180919503909102
:100B600096030817190709F07CC011821082F093D0
:100B70009603E0939503F801848195810E94C71044
:100B80000115110519F0C8010E94C7108091990341
:100B900090919A03019790939A0380939903D0922E
:100BA000A002C0929F028CE993E00E94DB0833CF41
:100BB0006BEC72E086EB93E00E9412110F900F90A5
:100BC0000F900F90DF91CF911F910F91FF90EF90B9
:100BD000DF90CF90BF90AF909F908F907F906F905D
:100BE0005F904F900895B092AA03A092A90310922B
:100BF000AC031092AB03D3CFFA82E9821C830B8340
:100C0000BE016F5F7F4F85E993E00E94AB030091C7
:100C10009503109196038091970390919803D801C2
:100C20000817190709F471CF1496ED91FC911597E7
:100C3000408162818CE993E00E94A507F80102815E
:100C40001381E9CF20813181809122039091230388
:100C50002817390709F071CF9092A00280929F0265
:100C6000A2CFD8012D913C91119712968D919C9114
:100C70001397D90113969C938E93129731832083F7
:100C80007ACF80912403909125036AE070E00E945E
:100C90005212892B21F40E940C030E94E8046FED8C
:100CA00072E086EB93E00E9412110E949F036AE0BB
:100CB00070E080E090E00E94A70D80912403909165
:100CC0002503019690932503809324030895CF93E1
:100CD000DF93EC018C819D81E881F981892BF1F012
:100CE0000280F381E02DF983E8830190F081E02D0B
:100CF000848195810E94C710E881F981808191816A
:100D0000009711F00E94C710E881F98111821082CA
:100D10008C819D8101979D838C83DCCF848195811B
:100D20000E94C71088819981009721F0DF91CF91AF
:100D30000C94C710DF91CF910895EF920F931F93FA
:100D4000CF93DF9324E043E062E08CE993E00E94DC
:100D5000F90605E913E0D8011D921C92C7E9D3E01A
:100D60001982188210929A031092990386E090E0FB
:100D70000E94C510FC01118210821382128215821A
:100D80001482D8018D939C939983888343E0E42E49
:100D900004E02AE031E04DE051E061E972E086E2F2
:100DA00093E00E94260A8AE090E0909321038093CA
:100DB0002003909323038093220310921D0310922B
:100DC0001C0321E030E030931F0320931E03909317
:100DD00019038093180390931B0380931A03DF91E8
:100DE000CF911F910F91EF90089585E993E00C94B6
:100DF00067060F931F93CF93DF93CDB7DEB7E997C5
:100E00000FB6F894DEBF0FBECDBF8C01FC0113827C
:100E1000128288EE92E09183808386E390E029AF8E
:100E200048AF6FAB0E94C712F80195838483FE011F
:100E30003796DE01D7966FA948AD29AD1192EA1712
:100E4000FB07E1F76B832C834D832FEF2E8326E383
:100E5000FE013196DC0101900D922A95E1F781E0C7
:100E6000F801868388E1878380E18087E9960FB661
:100E7000F894DEBF0FBECDBFDF91CF911F910F91D0
:100E80000895FC0187810895FC0180850895FB0188
:100E900023E0F695E7952A95E1F7E80FF91F6770CB
:100EA000772781E090E0062E01C0880F0A94EAF7C8
:100EB0009681982B96830895FB0133E0F695E7958C
:100EC0003A95E1F7E80FF91F6770772781E090E026
:100ED000062E01C0880F0A94EAF78095968189232F
:100EE00086830895FC01862F9085491768F59781C0
:100EF000691750F568E10E943212983028F090315D
:100F000030F467E870E005C067E070E002C067E0B9
:100F100071E09770691B7109483010F4440F02C0EA
:100F2000440F4F5038E0439F600D711D112436E38C
:100F3000839FC001112444815581840F951F211185
:100F40000C9447070C945C07089521E00C947207F9
:100F500020E00C947207AF92BF92CF92DF92EF9293
:100F6000FF920F931F93CF93DF936C01A42EF62E65
:100F7000C22FD0E0C60FD11D10E0040F111D8F2D20
:100F800090E08C179D0784F4BA2C8B2D90E080178D
:100F9000910744F42E2D4B2D6F2DC6010E94720730
:100FA000B394F3CFF394EBCFDF91CF911F910F91D7
:100FB000FF90EF90DF90CF90BF90AF9008953F9259
:100FC0004F925F926F927F928F929F92AF92BF9259
:100FD000CF92DF92EF92FF920F931F93CF93DF9305
:100FE0005C01662E542E402E1E2D85E028026001E5
:100FF0001124962EC0E0D0E0C60188599F4F6C01A5
:10100000F601EC0FFD1F7490852CF12C3C2E360C54
:1010100070FE12C0113041F4242D4F2D450D632D6B
:10102000C5010E94720708C0E42C012F212F482D12
:10103000692DC5010E94AB077694F394810E98E068
:10104000F912E6CF2196910EC530D105C9F6DF9190
:10105000CF911F910F91FF90EF90DF90CF90BF90B5
:10106000AF909F908F907F906F905F904F903F9048
:101070000895EF920F931F93CF93DF93EC01262FE8
:101080006A3049F49B858A8528E0929F800D11245F
:101090008A87198611C06D3079F00C8510E0EB84D9
:1010A0004A8569850E94DF079B85892F880F890FF4
:1010B000880F9985980F998781E090E0DF91CF9113
:1010C0001F910F91EF900895DF92EF92FF920F938F
:1010D0001F93CF93DF93EC017B01D42E61E08A81D3
:1010E0000E94330E01E010E060E0DD20E1F08C8131
:1010F0000E946C0E8FEF8D0D980102C0220F331FDE
:101100008A95E2F7C9018E219F21892B11F061E0B8
:1011100001C060E08A810E946C0E61E08C810E94B7
:101120006C0EDA94E1CF8A81DF91CF911F910F91FC
:10113000FF90EF90DF900C94330E0F931F93CF939B
:10114000DF93EC0160E08B810E946C0E43E065E070
:1011500070E0CE010E94640847E060E070E0CE01DC
:101160000E94640800E010E0988189819802C00123
:10117000112497FD079633E0959587953A95E1F709
:101180000817190780F4FE01E00FF11F668170E077
:10119000762F66278781682B40E1CE010E94640884
:1011A0000E5F1F4FE1CF61E08B81DF91CF911F91E7
:1011B0000F910C946C0E1F93CF93DF93EC0110E012
:1011C0008E81181758F48C819D8126E3129F800D23
:1011D000911D11240E949D081F5FF2CFDF91CF91D6
:1011E0001F910895FC013081218132029001112468
:1011F00037FF02C0295F3F4F53E0359527955A9539
:10120000E1F760E0462F50E04217530734F4FC0149
:10121000E40FF51F16826F5FF5CF0C949D081F93A6
:10122000CF93DF93EC0110E08E81181758F48C8176
:101230009D8126E3129F800D911D11240E94F208CA
:101240001F5FF2CFDF91CF911F9108950F931F93EE
:10125000CF93DF93EC01062F10E0146060E08B81E8
:101260000E946C0EB801660F771F4CE0CE010E9401
:10127000640861E08B81DF91CF911F910F910C94F5
:101280006C0E1F93CF93DF93EC01162F61E08B81DF
:101290000E94330E61E08B810E946C0E61E08C81B4
:1012A0000E94330E61E08C810E946C0E61E08A81A5
:1012B0000E94330E8D8187FD07C061E00E94330ECE
:1012C00061E08D810E946C0E61E0CE010E942609D2
:1012D00063E0CE010E94260968E0CE010E94260943
:1012E00064E1CE010E94260968E1CE010E94260930
:1012F000612FCE010E9426096FEACE010E942609C5
:1013000088E1888380E18983DF91CF911F910895DF
:101310000F931F93CF93DF93EC01062F10E08E8184
:10132000181760F48C819D81602F26E3129F800D39
:10133000911D11240E9441091F5FF1CFDF91CF91D0
:101340001F910F910895603108F06FE0606A0C946E
:1013500026090F931F93CF93DF93EC01062F10E024
:101360008E81181760F48C819D81602F26E3129F77
:10137000800D911D11240E94A3091F5FF1CFDF9101
:10138000CF911F910F910895662311F069E001C07C
:1013900068E00C9426090F931F93CF93DF93EC0121
:1013A000062F10E08E81181760F48C819D81602FCC
:1013B00026E3129F800D911D11240E94C4091F5F16
:1013C000F1CFDF91CF911F910F910895FC013081F2
:1013D000218132029001112437FF02C0295F3F4F63
:1013E000F3E035952795FA95E1F760E07FEF462F1A
:1013F00050E04217530734F4FC01E40FF51F7683E5
:101400006F5FF5CF0C949D081F93CF93DF93EC0192
:1014100010E08E81181758F48C819D8126E3129F6D
:10142000800D911D11240E94E6091F5FF2CFDF910C
:10143000CF911F910895862F642F0C94330E862F21
:10144000642F0C946C0E862F0C94A20E4F925F9218
:101450006F927F928F929F92AF92BF92CF92DF92C4
:10146000EF920F93CF93DF93EC014B013A015901B7
:1014700002960E94280D80EF92E0998388836E0186
:101480008CE1C80ED11C26018CE3480E511CC6010C
:101490000E94280D86E0C80ED11CC414D504B9F7EB
:1014A000FE01EE59FF4F718260823296B182A082B6
:1014B000329600833196E082379791828082389607
:1014C0008AE090E091838083329684EF91E091836B
:1014D000808333961182108271971082118212825A
:1014E0001382C459DF4F1882DF91CF910F91EF9093
:1014F000DF90CF90BF90AF909F908F907F906F9034
:101500005F904F9008952F923F924F925F926F920B
:101510007F928F929F92AF92BF92CF92DF92EF9283
:10152000FF920F931F93CF93DF93CDB7DEB728972A
:101530000FB6F894DEBF0FBECDBF98878F83F12C16
:101540004C0186E6880E911C0F8118850E591F4F9D
:10155000D4018C91F816A0F4AF81B8858D919C913F
:10156000F801A081B181AF0DB11DFC012081318155
:1015700042E06C918F819885F9010995F394E8CF49
:10158000512CEF81F885E959FF4FFA83E9830F81E8
:1015900018850C591F4FC12CD12C7601C3948F8113
:1015A00098858E599F4F9C838B83A981BA818C919A
:1015B000581608F088C0A52CB12CAF81B8858D9144
:1015C0009C91F801A081B181AA0DBB1DFC01208175
:1015D000318141E06C918F819885F9010995AF8146
:1015E000B8858D919C91F801A081B181AA0DBB1D98
:1015F000FC012281338140E06C918F819885F90153
:101600000995D701C601052C04C0880F991FAA1F90
:10161000BB1F0A94D2F79C011C0120943094412CEA
:10162000D4018C91EF81F88540815181481648F5AD
:10163000642C712CEB81FC81A081B181A60DB71DBA
:10164000FA01448155816C918F8198852D833E8369
:10165000FA010995660C771C2D813E81EF81F88592
:10166000E60DF71D892B29F480859185822B932B1C
:1016700004C080859185822193219187808743943E
:10168000CFCFF801A081B181AA0DBB1DFA01228143
:10169000338141E06C918F819885F9010995AF8183
:1016A000B8858D919C91F801A081B181AA0DBB1DD7
:1016B000FC012081318140E06C918F819885F90196
:1016C0000995539472CF28960FB6F894DEBF0FBEDB
:1016D000CDBFDF91CF911F910F91FF90EF90DF90E1
:1016E000CF90BF90AF909F908F907F906F905F90C2
:1016F0004F903F902F900895FC0180E090E0258D61
:10170000368D2617370739F0019636968A309105BF
:10171000B1F78FEF9FEF0895DC0126E0629FA00DE7
:10172000B11D112490965C934E935F9721E09196A2
:101730002C939197FC01E459FF4F20813196019041
:10174000F081E02D222331F0309749F0611107C07C
:10175000DC0102C0309719F05C968C9109940895D1
:10176000CF92DF92FF920F931F93CF93DF931F923D
:10177000CDB7DEB76C01F62EFC0186E0689FE00D68
:10178000F11D112411A2878D90A181309105F1F0F6
:101790001CF4892B51F046C08230910599F10397D2
:1017A00009F040C040E050E031C04423D9F141E0AD
:1017B00050E0C6010E948C0B0E94780DF601E85A99
:1017C000FF4F60837183828393832CC049830E947F
:1017D000780DF601E85AFF4F008111812281338193
:1017E000601B710B820B930B72960081118120E0BC
:1017F00030E04981061717072807390718F442E037
:1018000050E004C041110EC043E050E06F2DC6010E
:101810000F90DF91CF911F910F91FF90DF90CF90AC
:101820000C948C0B0F90DF91CF911F910F91FF9033
:10183000DF90CF9008952F923F924F925F926F92D8
:101840007F928F929F92AF92BF92CF92DF92EF9250
:10185000FF920F931F93CF93DF931F92CDB7DEB705
:101860001C01FC014AE08FEF9FEF278D30A1232B55
:1018700021F4148E968F858F11A241503696411116
:10188000F4CF712C610126E6C20ED11C510187E60E
:10189000A80EB11C4101A0E68A0E911C46E0442E20
:1018A000D6018C91781608F055C0612C8101070D86
:1018B000111D070D111D085F1F4FF501E0806E140B
:1018C00008F046C0F80140815181062C02C05695AF
:1018D00047950A94E2F741707E9C70011124E60C52
:1018E000F11CD401ED91FC91EE0DFF1D5080B7016C
:1018F000C10149830E947C0B498197FD02C0682F7A
:101900001BC0019619F5442309F180E090E060E0E6
:1019100070E0F101E80FF91F248D211111C0469EDE
:10192000F001479EF00D1124E20DF31D548EF68E4A
:10193000E58E10A2178E41E0C1010E94B00B06C0D7
:101940006F5F7F4F06966A30710519F76394B5CFC4
:101950007394A6CF20E030E080E0F101E20FF31FA6
:1019600091A1911181E02A5F3F4F2C333105A9F7F6
:101970000F90DF91CF911F910F91FF90EF90DF902B
:10198000CF90BF90AF909F908F907F906F905F901F
:101990004F903F902F900895CF92DF92EF92FF9259
:1019A0000F931F93CF93DF938C010E94780DE80172
:1019B000C45ADF4FC880D980EA80FB806C197D094A
:1019C0008E099F09F801E859FF4FC080D180E12CB2
:1019D000F12CC616D706E806F90670F4C8010E9475
:1019E000830AC8010E941B0C182F0E94780D68837F
:1019F00079838A839B8301C010E0812FDF91CF918F
:101A00001F910F91FF90EF90DF90CF9008950F936B
:101A10001F93CF93DF93EC018C0104591F4F81E09A
:101A2000F8018083CE010E94CC0C882349F089A163
:101A3000882331F08F8D98A1019711F48C8D03C00C
:101A4000F801108280E0DF91CF911F910F910895EE
:101A5000FC01108214821382158208951F920F9246
:101A60000FB60F9211242F933F938F939F93AF93B1
:101A7000BF938091AE039091AF03A091B003B0915A
:101A8000B1033091AD0323E0230F2D3720F40196ED
:101A9000A11DB11D05C026E8230F0296A11DB11D91
:101AA0002093AD038093AE039093AF03A093B00354
:101AB000B093B1038091B2039091B303A091B403AA
:101AC000B091B5030196A11DB11D8093B20390930F
:101AD000B303A093B403B093B503BF91AF919F91AB
:101AE0008F913F912F910F900FBE0F901F901895DF
:101AF0002FB7F8946091AE037091AF038091B0035B
:101B00009091B1032FBF08953FB7F8948091B2032D
:101B10009091B303A091B403B091B50326B5A89BEF
:101B200005C02F3F19F00196A11DB11D3FBF6627CB
:101B3000782F892F9A2F620F711D811D911D42E010
:101B4000660F771F881F991F4A95D1F70895CF9286
:101B5000DF92EF92FF92CF93DF936B017C010E94A3
:101B6000840DEB01C114D104E104F10489F00E9459
:101B700031120E94840D6C1B7D0B683E734090F304
:101B800081E0C81AD108E108F108C851DC4FEACF5A
:101B9000DF91CF91FF90EF90DF90CF9008957894F0
:101BA00084B5826084BD84B5816084BD85B5826062
:101BB00085BD85B5816085BDEEE6F0E08081816000
:101BC0008083E1E8F0E01082808182608083808100
:101BD00081608083E0E8F0E0808181608083E1EBD8
:101BE000F0E0808184608083E0EBF0E080818160C0
:101BF0008083EAE7F0E08081846080838081826076
:101C0000808380818160808380818068808310925E
:101C1000C1000895833081F028F4813099F082303A
:101C2000A1F008958730A9F08830B9F08430D1F45C
:101C3000809180008F7D03C0809180008F7780939A
:101C40008000089584B58F7702C084B58F7D84BDF0
:101C500008958091B0008F7703C08091B0008F7D90
:101C60008093B0000895CF93DF9390E0FC01E95892
:101C7000FA4F2491FC01E557FA4F8491882349F1EA
:101C800090E0880F991FFC01ED54FA4FA591B49193
:101C900087559A4FFC01C591D4919FB7611108C037
:101CA000F8948C91209582238C93888182230AC09A
:101CB000623051F4F8948C91322F309583238C93B9
:101CC0008881822B888304C0F8948C91822B8C931A
:101CD0009FBFDF91CF9108950F931F93CF93DF9311
:101CE0001F92CDB7DEB7282F30E0F901ED59FA4F3A
:101CF0008491F901E958FA4F1491F901E557FA4F27
:101D000004910023C9F0882321F069830E940A0E00
:101D10006981E02FF0E0EE0FFF1FE755FA4FA59124
:101D2000B4919FB7F8948C91611103C010958123F1
:101D300001C0812B8C939FBF0F90DF91CF911F919A
:101D40000F910895CF93DF93282F30E0F901ED59DB
:101D5000FA4F8491F901E958FA4FD491F901E55706
:101D6000FA4FC491CC2391F081110E940A0EEC2FFE
:101D7000F0E0EE0FFF1FE156FA4FA591B4912C91C0
:101D80002D2381E090E021F480E002C080E090E02B
:101D9000DF91CF910895FC01818D228D90E0805CD0
:101DA0009F4F821B91098F7399270895FC01918D94
:101DB000828D981731F0828DE80FF11D858D90E0AE
:101DC00008958FEF9FEF0895FC01918D828D9817F4
:101DD00061F0828DDF01A80FB11D5D968C91928D0F
:101DE0009F5F9F73928F90E008958FEF9FEF08950C
:101DF00088E690E1892B49F080E090E0892B29F07A
:101E00000E94681081110C9400000895FC01848DDB
:101E1000DF01A80FB11DA35ABF4F2C91848D90E014
:101E200001968F739927848FA689B7892C93A089EF
:101E3000B1898C9180648C93938D848D981306C0A6
:101E40000288F389E02D80818F7D80830895CF9370
:101E5000DF93EC01888D8823C9F0EA89FB898081B2
:101E600085FD05C0A889B9898C9186FD0FC00FB684
:101E700007FCF5CF808185FFF2CFA889B9898C91C5
:101E800085FFEDCFCE010E94060FE7CFDF91CF9106
:101E90000895CF92DF92FF920F931F93CF93DF931A
:101EA0001F92CDB7DEB76C0181E0D60158968C93B6
:101EB00058975B969C915B975C968C915C97981376
:101EC00007C05096ED91FC915197808185FD2EC001
:101ED000F601038D10E00F5F1F4F0F731127F02ED7
:101EE000F601848DF81211C00FB607FCF9CFD601A8
:101EF0005096ED91FC915197808185FFF1CFC601FD
:101F000069830E94060F6981EBCF838DE80FF11D75
:101F1000E35AFF4F6083D6015B960C935B97529612
:101F2000ED91FC915397808180620CC0D60156964A
:101F3000ED91FC91579760835096ED91FC915197EC
:101F400080818064808381E090E00F90DF91CF9169
:101F50001F910F91FF90DF90CF900895BF92CF9285
:101F6000DF92EF92FF92CF93DF93EC016A017B0146
:101F7000B22EE889F98982E08083411581EE580705
:101F800061057105A1F060E079E08DE390E0A701C3
:101F900096010E9466122150310941095109569556
:101FA000479537952795211580E1380798F0E889FE
:101FB000F989108260E874E88EE190E0A70196014B
:101FC0000E946612215031094109510956954795E1
:101FD00037952795EC85FD853083EE85FF85208339
:101FE000188EEC89FD89B082EA89FB898081806145
:101FF0008083EA89FB89808188608083EA89FB8904
:10200000808180688083EA89FB8980818F7D8083DD
:10201000DF91CF91FF90EF90DF90CF90BF90089528
:102020001F920F920FB60F9211242F938F939F93AD
:10203000EF93FF93E091C603F091C7038081E09195
:10204000CC03F091CD0382FD12C090818091CF032B
:102050008F5F8F732091D003821751F0E091CF03EF
:10206000F0E0EA54FC4F958F8093CF0301C080814C
:10207000FF91EF919F918F912F910F900FBE0F9035
:102080001F9018951F920F920FB60F9211242F9345
:102090003F934F935F936F937F938F939F93AF93F0
:1020A000BF93EF93FF9386EB93E00E94060FFF919F
:1020B000EF91BF91AF919F918F917F916F915F91C0
:1020C0004F913F912F910F900FBE0F901F90189539
:1020D00086EB93E00E94CB0E21E0892B09F420E0EF
:1020E000822F08951092B9031092B80388EE93E0FE
:1020F000A0E0B0E08093BA039093BB03A093BC032D
:10210000B093BD038AEF92E09093B7038093B60338
:1021100085EC90E09093C3038093C20384EC90E03D
:102120009093C5038093C40380EC90E09093C70321
:102130008093C60381EC90E09093C9038093C80319
:1021400082EC90E09093CB038093CA0386EC90E0FE
:102150009093CD038093CC031092CF031092D003C1
:102160001092D1031092D203089508950E94CF0DCA
:102170000E94B5100E94EB03C8EFDEE00E9441060A
:102180002097E1F30E94F80EF9CF0C94C7120C943B
:102190005F13CF92DF92EF92FF920F931F93CF9333
:1021A000DF936C017A01EB01E60EF71E00E010E010
:1021B000CE15DF0561F06991D601ED91FC9101909A
:1021C000F081E02DC6010995080F191FF1CFC80154
:1021D000DF91CF911F910F91FF90EF90DF90CF9003
:1021E00008956115710581F0DB010D900020E9F77C
:1021F000AD0141505109461B570BDC01ED91FC919B
:102200000280F381E02D099480E090E00895DC01E4
:10221000ED91FC910190F081E02D099466E073E06E
:102220000C94F1100F931F93CF93DF93EC010E9456
:10223000F1108C01CE010E940E11800F911FDF91D1
:10224000CF911F910F9108950F931F93CF93DF9319
:10225000EC010E9407118C01CE010E940E11800F2B
:10226000911FDF91CF911F910F9108958F929F92AF
:10227000AF92BF92CF92DF92EF92FF920F931F9394
:10228000CF93DF93CDB7DEB7A1970FB6F894DEBF3B
:102290000FBECDBF7C01C42EE52FCB01D22E19A2DB
:1022A00021E02D1510F02AE0D22E8E010F5D1F4F78
:1022B0008D2C912CA12CB12C6C2D7E2FA50194017D
:1022C0000E9466128C2DD29E801911240150110992
:1022D0008A3014F4805D01C0895CF8018083211587
:1022E00031054105510521F0C22EE32FCA01E4CF8B
:1022F000B801C7010E94F110A1960FB6F894DEBF95
:102300000FBECDBFDF91CF911F910F91FF90EF9046
:10231000DF90CF90BF90AF909F908F900895CF9215
:10232000DF92EF92FF920F931F93CF93DF93EC0115
:102330006A017B012115310579F4E881F981019069
:10234000F081E02D642FDF91CF911F910F91FF90CD
:10235000EF90DF90CF9009942A303105E9F477FFB0
:102360001AC06DE20E9407118C0144275527BA015B
:102370004C195D096E097F092AE0CE010E943611D1
:10238000800F911FDF91CF911F910F91FF90EF90E0
:10239000DF90CF9008952AE0B701A601CE01DF912A
:1023A000CF911F910F91FF90EF90DF90CF900C9401
:1023B00036110F931F93CF93DF93EC019A01AB017A
:1023C000662757FD6095762F0E948F118C01CE01F4
:1023D0000E940E11800F911FDF91CF911F910F91DD
:1023E0000895CF93DF9300D000D0CDB7DEB79B0127
:1023F000AC01611571058105910569F069833A8326
:102400004B835C830E943D1429813A814B815C811E
:102410000E94881203C060E070E0CB010F900F9023
:102420000F900F90DF91CF910895CF92DF92EF92AE
:10243000FF926B017C01621773078407950764F4B0
:10244000CA01B9016C197D098E099F090E94F11119
:102450006C0D7D1D8E1D9F1DFF90EF90DF90CF9026
:1024600008950895991B79E004C0991F961708F004
:10247000961B881F7A95C9F780950895AA1BBB1BE8
:1024800051E107C0AA1FBB1FA617B70710F0A61B74
:10249000B70B881F991F5A95A9F780959095BC0195
:1024A000CD01089597FB072E16F4009407D077FD11
:1024B00009D00E943E1207FC05D03EF4909581950C
:1024C0009F4F0895709561957F4F0895A1E21A2E50
:1024D000AA1BBB1BFD010DC0AA1FBB1FEE1FFF1FC8
:1024E000A217B307E407F50720F0A21BB30BE40B18
:1024F000F50B661F771F881F991F1A9469F760955F
:102500007095809590959B01AC01BD01CF01089518
:10251000052E97FB1EF400940E949F1257FD07D0D2
:102520000E94661207FC03D04EF40C949F12509543
:102530004095309521953F4F4F4F5F4F08959095AF
:102540008095709561957F4F8F4F9F4F08950E94A2
:10255000B812A59F900DB49F900DA49F800D911D62
:1025600011240895EE0FFF1F0590F491E02D0994BA
:10257000A29FB001B39FC001A39F700D811D1124C4
:10258000911DB29F700D811D1124911D0895CF934F
:10259000DF938230910510F482E090E0E0915504E1
:1025A000F091560420E030E0A0E0B0E0309739F13F
:1025B0004081518148175907B8F04817590771F4FD
:1025C00082819381109729F013969C938E93129792
:1025D0002CC0909356048093550427C021153105D3
:1025E00031F04217530718F0A901DB0101C0EF01D8
:1025F0009A01BD01DF010280F381E02DD7CF2115C3
:102600003105F9F0281B390B2430310580F48A811B
:102610009B816115710521F0FB019383828304C0C6
:102620009093560480935504FE01329644C0FE01F7
:10263000E20FF31F8193919322503109398328834C
:102640003AC02091530430915404232B41F420913B
:1026500002013091030130935404209353042091DC
:102660000001309101012115310541F42DB73EB72C
:102670004091040150910501241B350BE091530456
:10268000F0915404E217F307A0F42E1B3F0B281718
:10269000390778F0AC014E5F5F4F2417350748F0DB
:1026A0004E0F5F1F509354044093530481939193B2
:1026B00002C0E0E0F0E0CF01DF91CF910895CF9329
:1026C000DF93009709F487C0FC01329713821282CE
:1026D000C0915504D0915604209781F42081318116
:1026E000280F391F80915304909154048217930747
:1026F00079F5F0935404E09353046DC0DE0120E0BB
:1027000030E0AE17BF0750F412964D915C911397CD
:102710009D014115510509F1DA01F3CFB383A2837D
:1027200040815181840F951F8A179B0771F48D9109
:102730009C911197840F951F029691838083129626
:102740008D919C911397938382832115310529F4F0
:10275000F0935604E09355043EC0D9011396FC93C0
:10276000EE9312974D915D91A40FB51FEA17FB07E9
:1027700079F480819181840F951F0296D901119679
:102780009C938E938281938113969C938E93129740
:10279000E0E0F0E08A819B81009719F0FE01EC01F6
:1027A000F9CFCE01029628813981820F931F2091A3
:1027B0005304309154042817390769F4309729F4E9
:1027C000109256041092550402C013821282D093C4
:1027D0005404C0935304DF91CF9108958F929F9238
:1027E000AF92BF92CF92DF92EF92FF92CF93DF939F
:1027F000EC01688179818A819B8161157105810570
:10280000910521F464E279ED8BE597E02DE133EF5A
:1028100041E050E00E94881249015A019B01AC013D
:10282000A7EAB1E40E94A7126B017C01ACEEB4EF01
:10283000A50194010E944E14C60ED71EE81EF91E73
:10284000F7FE06C081E0C81AD108E10880E8F80A5E
:10285000C882D982EA82FB82C701B6019F77DF91E5
:10286000CF91FF90EF90DF90CF90BF90AF909F906F
:102870008F9008950E94EE13089586E091E00E94E3
:10288000EE13089560930601709307018093080189
:10289000909309010895B7FF0C94A7120E94A71204
:1028A000821B930B089515E0C2ECD5E004C0FE0135
:1028B0000E94B4122296C43CD107C9F7F894FFCF06
:1028C00000005704800001000000060807090A0BF9
:1028D0000C000000000000000000000000000000EC
:1028E00000000000000000000000000001010100E5
:1028F00001010100010101000100010001010100CD
:1029000000000000010000000101010001010100C0
:1029100001000100010000000000000001010100B1
:10292000010001000100010001000100010101009E
:102930000000000000000100010001000101010091
:102940000101000001000000000000000101010081
:10295000010001000100010001000100010101006E
:102960000000000000000000000000000000000067
:102970000000000000000000000000000000000057
:102980000000000000000000000000000000000047
:102990000000000000000000000000000000000037
:1029A0000000000000000000000000000000000027
:1029B0000000000000000000000000000000000017
:1029C0000000000000000000000000000000000007
:1029D00000000000000000000000000000000000F7
:1029E00000000000000000000000000000000000E7
:1029F00000000000000000000000000000000000D7
:102A000000000000000000000000000000000000C6
:102A100000000000000000000000000000000000B6
:102A200000000000000000000000000000000000A6
:102A30000000000000000000000000000000000096
:102A40000000000000000000000000000000000086
:102A500000000102030405060708090A0BFF000134
:102A60000003002B2047616D6520696E2050526F76
:102A70006772657373730066727569742E783A2095
:102A80000066727569742E793A20002D2047616DB9
:102A90006520696E2050526F67726573737300749E
:102AA00065737400000000003908C91000000000C0
:102AB0001B0A1F0A230A00000000490FC910CB0E91
:102AC000E40ED60E270F0D0A006E616E00696E6669
:082AD000006F7666002E000085
:00000001FF
